:020000040800F2
:10000000A0B40020A1010008BF110008571000088B
:10001000BD1100080303000843150008000000009C
:10002000000000000000000000000000C3110008F4
:100030000503000800000000C1110008C5110008F8
:10004000BB010008BB010008BB010008BB010008A0
:10005000BB010008BB010008BB010008BB01000890
:10006000BB010008BB010008BB010008BB01000880
:10007000BB010008BB010008BB010008BB01000870
:10008000BB010008BB010008BB010008BB01000860
:10009000BB010008BB010008BB010008BB01000850
:1000A000BB010008BB010008BB010008BB01000840
:1000B000BB010008BB01000865120008BB01000875
:1000C000BB010008BB010008BB010008BB01000820
:1000D000BB010008BB010008BB010008BB01000810
:1000E000BB010008BB010008BB010008BB01000800
:1000F000BB010008BB010008BB010008BB010008F0
:10010000BB010008BB010008BB010008BB010008DF
:10011000BB010008BB010008BB010008BB010008CF
:10012000BB010008BB010008BB010008BB010008BF
:10013000BB010008BB010008BB010008BB010008AF
:10014000BB010008BB010008BB010008BB0100089F
:10015000BB010008BB010008BB010008BB0100088F
:10016000BB010008BB010008BB010008BB0100087F
:10017000BB010008BB010008BB0100080000000033
:10018000BB010008BB010008DFF810D000F07CF8CC
:100190000048004725160008AFF30080A0B40020F7
:1001A0000648804706480047FEE7FEE7FEE7FEE711
:1001B000FEE7FEE7FEE7FEE7FEE7FEE7491200087E
:1001C000890100082DE9F05F0546002092469B4614
:1001D00088460646814640241BE02846414647465D
:1001E000224600F041F853465A46C01A914110D3B6
:1001F00011461846224600F028F82D1A67EB010830
:100200004F4622460120002100F01FF817EB00099D
:100210004E41201EA4F10104DFDC484631462A4647
:100220004346BDE8F09FD2B201E000F8012B491E21
:10023000FBD270470022F6E710B513460A46044683
:100240001946FFF7F0FF204610BD202A04DB203AB4
:1002500000FA02F1002070479140C2F1200320FA19
:1002600003F3194390407047202A04DB203A21FA17
:1002700002F00021704721FA02F3D040C2F12002BF
:100280009140084319467047064C074D06E0E06868
:1002900040F0010394E8070098471034AC42F6D3CD
:1002A000FFF776FF641800088418000870B58C18F2
:1002B00010F8015B15F0070301D110F8013B2A117A
:1002C00006D110F8012B03E010F8016B01F8016B67
:1002D0005B1EF9D12B0705D40023521E0DD401F863
:1002E000013BFAE710F8013BCB1A921C03E013F82C
:1002F000015B01F8015B521EF9D5A142D8D3002061
:1003000070BDFEE7704700002DE9F84F00224FF066
:10031000010803254FF00F0E0B6808FA02F4234082
:10032000A3426ED14E68012E05D0022E03D0112EAD
:1003300001D0122E12D186684FEA420C05FA0CF752
:10034000BE43CF6807FA0CF7374387604668A64379
:100350000C79C4F30014944034434460C6685700D9
:1003600005FA07FC8C6826EA0C06BC403443C460DE
:100370004C68022C01D0122C13D1D40800EB840459
:10038000A346D4F8209054074FEAD46A0EFA0AF62E
:1003900029EA06090E6906FA0AF646EA0906CBF8C2
:1003A000206006680C7926EA0C0604F00304BC40C1
:1003B000344304604C68E40065D5364C266846F446
:1003C00080462660246822F0030604F480440094EA
:1003D000314C3444A446D4F808489607370F0EFA37
:1003E00007F6B4432D4EB04201D1002624E02C4E36
:1003F000B04201D101261FE02A4EB04202D10226AE
:100400001AE040E0284EB04201D1032614E0274E06
:10041000B04201D104260FE0254EB04201D105269D
:100420000AE0244EB04201D1062605E0224EB04239
:1004300001D1072600E00826BE402643CCF8086814
:100440001E4E34684F689C43FF0300D51C43346044
:100450001A4C241D26684F689E43BF0300D51E43D7
:100460002660164E083634684F689C43FF0200D55C
:100470001C433460114E0C3634684F689C43BF02F5
:1004800000D51C433460521C102AFFF445AFBDE870
:10049000F88F000044380240003001400000024064
:1004A0000004024000080240000C0240001002401C
:1004B0000014024000180240001C0240003C0140B1
:1004C0000AB1816170470904FBE7000001488068B8
:1004D000704700000C300020024881680278114407
:1004E000816070470C3000200B4810B5016841F462
:1004F00000710160016841F480610160016841F4AC
:1005000080710160032000F06FF8002000F006F811
:1005100000F024F8002010BD003C024070B50D4DE5
:1005200004464FF47A712878B1FBF0F00A49096863
:10053000B1FBF0F000F0E2FA48B9102C07D200222B
:100540002146501E00F030F800206C6070BD012084
:1005500070BD00000C300020183000200A4808B59B
:10056000016841F480410160006800F4804000901F
:100570000548001F016841F080510160006800F0EB
:100580008050009008BD000044380240002809DB7C
:1005900000F01F02012191404009800000F1E0209D
:1005A000C0F8001170470000F0B40E4B1B680C46F9
:1005B000C3F30223C3F10705042D00D90425191D37
:1005C000072901D2002300E0DB1E012606FA05F10F
:1005D000491E214099409E40761E16403143F0BC92
:1005E00000F0B0BF0CED00E0064900F0070208681B
:1005F0004FF6FF03184040EA0220034A1043086008
:10060000704700000CED00E00000FA052DE9F0470E
:100610000E46050065D0DFF81481D8F80000F7B267
:1006200000F00F00B04207D288F80070D8F8000040
:1006300000F00F00B04254D128683D4C810712D51C
:10064000400703D5206840F4E05020602878000778
:1006500003D5206840F4604020602068A96820F03D
:10066000F000084320602878C0072DD03049686822
:100670000839012812D0022813D0032811D00968A4
:10068000890700292DDA216821F003010143216047
:10069000FFF71CFF814641F2883A0EE009688903A2
:1006A000EFE709688901ECE7FFF710FFA0EB09010C
:1006B000514502D90320BDE8F0872068696800F041
:1006C0000C00B0EB810FEFD1D8F80010404601F0DC
:1006D0000F01B14207D90770006800F00F00B04267
:1006E00001D00120E7E72878400705D52068E968B0
:1006F00020F4E050084320602878000706D52068E1
:10070000296920F4604040EAC100206000F018F838
:100710002168084AC1F30311515CC84006490860CA
:1007200006480068FFF7FAFE0020C4E7003C0240DC
:1007300008380240541800081830002010300020FB
:10074000154810B5006810F00C02144813D0411081
:10075000042A0FD0082A0ED10F4C241F22682368C8
:1007600002F03F025B0207D52068C0F38810A0FBAF
:10077000010106E0084610BD2168C1F38811A1FB04
:1007800000010023FFF71EFD2168C1F30141491C50
:100790004900B0FBF1F010BD083802400024F4001D
:1007A0002DE9F84F04006ED02078DFF83C93C007A5
:1007B000A9F104054AD009F104000168C1F38101DF
:1007C000012908D00068C0F3810002280AD1D9F8B5
:1007D0000000400206D52868800337D560680028ED
:1007E000E1D033E06068B0F5803F10D0B0F5A02FC5
:1007F000286810D020F480302860286820F48020F9
:1008000028606068A8B1FFF761FE06460DE0286821
:1008100040F48030F4E740F480202860F7E700BF20
:10082000FFF754FE801B642873D828688003F7D52F
:100830000CE0FFF74BFE064605E000BFFFF746FE63
:10084000801B6428F0D828688003F7D42078DFF86C
:100850009C8280074FF0000A3ED5A348001D016826
:1008600011F00C0F08D00068C0F3810002280BD1F2
:10087000D9F80000400207D42868800716D5E06840
:10088000012800D112E02BE1E068B8B10120C8F8DE
:100890000000FFF71BFE064605E000BFFFF716FE4F
:1008A000801B0228C0D828688007F7D528682169EE
:1008B00020F0F80040EAC10028600DE0C8F800A070
:1008C000FFF704FE064604E0FFF700FE801B022847
:1008D0001FD828688007F7D42078000722D5824ED9
:1008E00083486169703671B101210160FFF7EEFD47
:1008F000074604E0FFF7EAFDC01B022809D830686C
:100900008007F7D50EE0C0F800A0FFF7DFFD07462F
:1009100005E082E0FFF7DAFDC01B02287DD83068D1
:100920008007F7D42078400768D5DFF8BCB10027EE
:100930000BF13C0BDBF80000C0000BD4DBF800101F
:1009400041F08051CBF80010DBF80000012700F0E7
:1009500080500090674E3068C00510D4306840F475
:1009600080703060FFF7B2FD009005E0FFF7AEFD4C
:100970000099401A022850D83068C005F6D55A4E62
:10098000A0686C3601280FD00528306810D020F000
:1009900001003060306820F004003060A068B8B119
:1009A000FFF794FD00900FE0306840F00100F4E79D
:1009B00040F004003060F7E7FFF788FD0099411A26
:1009C00041F28830814266D830688007F4D50EE065
:1009D000FFF77CFD009007E0FFF778FD0099411AD2
:1009E00041F28830814256D830688007F4D42FB164
:1009F000DBF8001021F08051CBF80010A069C8B3DB
:100A00003949091D0968C1F3810102294AD0022828
:100A1000504607D0C8F8600000E03CE0FFF756FD04
:100A200004463BE04746C8F86000FFF74FFD064626
:100A300005E000BFFFF74AFD801B02282BD828687D
:100A40008001F7D4D4E907010843A16A2A4A49087A
:100A500002EB0141626A41EA8211084394F82C10CA
:100A600040EA0161C9F8001001203866FFF72EFD49
:100A7000044606E036E000BFFFF728FD001B022811
:100A800009D828688001F7D52CE000BFFFF71EFDCC
:100A9000001B022802D90320BDE8F88F28688001D6
:100AA000F4D41FE00128F7D0D9F80000E26900F47F
:100AB0008001914214D1226A00F03F0191420FD18E
:100AC00047F6C071626A0140914209D1A26A00F4FE
:100AD0004031914204D1E16A00F07060884201D057
:100AE0000120D9E70020D7E7043802400000474240
:100AF000800E4742007000400000FFFF10B5401E0E
:100B0000B0F1807F01D3012010BD4FF0E02460617F
:100B10000F21601700F016FD0020A0610720206162
:100B2000002010BD7047704770B590F83C20012A36
:100B300032D0012480F83C40022280F83D20036836
:100B40005A689D6822F070060A6832435A60134B57
:100B500002689A4214D0B2F1804F11D0104B9A42E1
:100B60000ED0104B9A420BD00F4B9A4208D00F4B2D
:100B70009A4205D00E4B9A4202D00E4B9A4204D1B3
:100B8000496825F080031943916080F83D400021B9
:100B900080F83C10084670BD022070BD0000014086
:100BA0000004004000080040000C00400004014028
:100BB000004001400018004010B5040003D094F834
:100BC0003D0010B107E0012010BD002084F83C007A
:100BD000204600F00DF8022084F83D00211D206819
:100BE00000F046FB012084F83D00002010BD00000D
:100BF00008B501681048B1F1804F14D00F4A9142F6
:100C000019D1016841F0040101600068002200F080
:100C10000400009011461E20FFF7C6FCBDE8084006
:100C20001E20FFF7B3BC016841F0010101600068BC
:100C300000F00100009008BD40380240000800406C
:100C40000168CA6842F00102CA600068816801F068
:100C50000701062903D0016841F00101016000206D
:100C6000704770B5044690F83C00012817D0012564
:100C700084F83C50022084F83D002068826822F00D
:100C8000770222F47F4282600868502830D00DDC61
:100C900020284DD005DC98B310283BD148E0022035
:100CA00070BD302844D0402834D139E0602828D0A5
:100CB000702806D0B0F5805F2CD0B0F5005F29D148
:100CC0000AE0CB68D1E90121206800F042FB2068EE
:100CD000816841F0770109E0CB68D1E90121206802
:100CE00000F037FB2068816841F48041816011E0A9
:100CF000CA684968206800F001FC5021206807E0BC
:100D000016E0CA684968206800F009FC6021206884
:100D100000F029FB84F83D50002084F83C0070BDB1
:100D2000CA684968206800F0E9FB40212068EFE7C5
:100D3000226801461046EBE7704770B5044600682C
:100D400001694FF00005C943890715D4C168C9433B
:100D5000890711D4E91E016101202077206880698C
:100D60008007204602D0FFF7E7FF04E000F0C0F85C
:100D7000204600F042F9257720680169C9434907F8
:100D800017D4C168C943490713D46FF00401016146
:100D9000022020772068806910F4407F204602D02E
:100DA000FFF7CAFF04E000F0A3F8204600F025F9A1
:100DB000257720680169C943090716D4C168C9436A
:100DC000090712D46FF00801016104202077206820
:100DD000C0698007204602D0FFF7AEFF04E000F0B4
:100DE00087F8204600F009F9257720680169C94392
:100DF000C90617D4C168C943C90613D46FF01001DE
:100E00000161082020772068C06910F4407F2046E7
:100E100002D0FFF791FF04E000F06AF8204600F0EE
:100E2000ECF8257720680169C943C90708D1C16872
:100E3000C943C90704D1891E0161204600F000F9A9
:100E400020680169C943090609D4C168C943090674
:100E500005D46FF0800101612046FFF763FE206832
:100E60000169C943490609D4C168C943490605D483
:100E70006FF040010161204600F0ECF82068016944
:100E8000C94389060BD4C168C943890607D46FF0EA
:100E9000200101612046BDE87040FFF744BE70BDEF
:100EA00010B586B0044614216846FFF7C3F92068E0
:100EB000B0F1804F16D10C480021026842F00202C6
:100EC0000260006800F0020005904FF4006000909E
:100ED0000220CDE901010120CDE903106946034854
:100EE000FFF712FA06B010BD30380240000402408D
:100EF000704770B5044690F83C000D4601280DD0AF
:100F0000012684F83C60022084F83D0042B1042AA6
:100F100018D0082A2AD00C2A4DD139E0022070BD01
:100F2000206800F029FA2068816941F00801816198
:100F30002068816921F004018161206881692A6942
:100F4000114311E0206800F047FA2068816941F4FC
:100F5000006181612068816921F48061816120687C
:100F600081692A6941EA0221816124E0206800F058
:100F700069FA2068C16941F00801C1612068C1694E
:100F800021F00401C1612068C1692A69114311E09F
:100F9000206800F08BFA2068C16941F40061C161EA
:100FA0002068C16921F48061C1612068C1692A6932
:100FB00041EA0221C16184F83D60002084F83C00D0
:100FC00070BD10B5040003D094F83D0010B107E0E7
:100FD000012010BD002084F83C00204600F00CF8F1
:100FE000022084F83D00211D206800F041F9012015
:100FF00084F83D00002010BD7047704710B50446CE
:101000000068012200F098F90B492068884202D05C
:101010000A49884203D1416C41F40041416420688F
:10102000816801F00701062903D0016841F0010140
:101030000160002010BD00000000014000040140DC
:1010400000680349884201D100F004BB70470000EA
:10105000000800407047FEE72DE9F04387B01421F7
:101060006846FFF7E7F820480024016841F0800156
:101070000160016801F080010591016841F0010102
:101080000160016801F001010591016841F0020170
:1010900001600068DFF8548000F002000590012232
:1010A000FC214046FFF70CFADFF844904FF203476B
:1010B000012239464846FFF703FAFC2001250226A3
:1010C000CDE90005CDE9024669464046FFF71CF927
:1010D00000970396CDE9015469464846FFF714F995
:1010E00007B0BDE8F0830000303802400000024045
:1010F0000004024010B58EB00024079408940994AF
:101100000A940B941C2168460C94FFF793F8164838
:101110004FF0804101600121C0E901143221C0E992
:1011200003148461FFF748FD4FF48050079007A92E
:101130000D48FFF796FD0C48FFF743FF0B940BA9F2
:1011400009480C94FFF7F0FC6020CDE90004022070
:1011500002900C22694604940348FFF7CAFE024835
:10116000FFF79EFE0EB010BD1C30002010B586B0FB
:1011700000241148009401940294039404940D49AE
:10118000059401603121C0E901141321C0E9031461
:101190008461FFF711FD4FF48050009069460648C6
:1011A000FFF75FFD049404A903480594FFF7BCFC16
:1011B00006B010BD000800405C300020FEE770471C
:1011C00070477047FFF788B930B593B03021684653
:1011D000FFF730F814210CA8FFF72CF81848002569
:1011E000016841F080510160006800F0805011906A
:1011F0001448016841F4804101600068022400F451
:101200008040119001200090000401908001CDE900
:10121000064008AA0420A82182E813000B90684623
:10122000FFF7BEFA0CA90F2081E831004FF4A0505F
:101230000F90109005210CA8FFF7E8F913B030BD0E
:1012400040380240007000400548016841F47001D8
:10125000016003494FF0006080390860704700006A
:1012600088ED00E00148FFF768BD00005C30002019
:10127000F0B50268254C264D264E274F274B4FF0E0
:10128000804CA04209D0604507D0A84205D0B042AA
:1012900003D0B84201D0984204D122F0700E4A68BF
:1012A00042EA0E02A0421BD0604519D0A84217D0D6
:1012B000B04215D0B84213D0984211D0184DA84270
:1012C0000ED0184DA8420BD0174DA84208D0174D8C
:1012D000A84205D0164DA84202D0164DA84203D10F
:1012E00022F44075CA682A434D6922F080022A43DD
:1012F00002608A68C2620A688262A04201D0984293
:1013000001D10969016301214161F0BD0000014083
:101310000004004000080040000C004000040140B0
:1013200000400140004401400048014000180040D6
:10133000001C00400020004010B501F01F030121F7
:10134000046A99408C430462016A9A401143016225
:1013500010BD10B5846842EA032224F47F440A4396
:101360002243826010BD826822F070020A4342F07C
:101370000701816070470000F0B5026A22F00102A7
:101380000262036A42688469124E24F073050C6895
:101390002C4323F002058B682B430D4DA84201D04E
:1013A000B04205D123F00807CB683B4323F0040388
:1013B000A84201D0B04205D14D6922F440721543D4
:1013C0008A692A4342608461496841630362F0BDCF
:1013D0000000014000040140F0B5026A22F0100252
:1013E0000262026A436884690D6824F4E64444EAB0
:1013F00005248D6822F0200242EA05120F4D104E9E
:10140000A84201D0B04206D1CF6822F0800242EA61
:10141000071222F04002A84201D0B04207D14D6924
:1014200023F4406343EA85038D6943EA85034360FF
:101430008461496881630262F0BD000000000140E0
:1014400000040140F0B5026A22F480720262026A6E
:101450004368C46922F4007224F073050C68124ECC
:101460002C438D6842EA05220E4DA84201D0B042BD
:1014700006D1CF6822F4006242EA072222F4806299
:10148000A84201D0B04207D14D6923F4405343EA4A
:1014900005138D6943EA05134360C4614968C1635C
:1014A0000262F0BD000001400004014030B5026A54
:1014B00022F480520262046A4268C3690D6823F410
:1014C000E64343EA05238D6824F4005444EA0534D6
:1014D000084DA84202D0084DA84204D14D6922F41B
:1014E000804242EA85124260C36149680164046235
:1014F00030BD0000000001400004014010B5036A47
:10150000046A24F001040462846924F0F00444EACB
:10151000021423F00A020A438461026210BD10B56E
:10152000036A23F0100303628369046A23F470439F
:1015300043EA023224F0A00343EA0111826101620E
:1015400010BDFEE70907090E002804DB00F1E020CA
:1015500080F80014704700F00F0000F1E02080F8E0
:10156000141D704702E008C8121F08C1002AFAD1F2
:1015700070477047002001E001C1121F002AFBD113
:10158000704700002DE9F04F244ADFF894B00024A2
:101590004FF0010E0026A00100F5006A00250EFAAA
:1015A00006F106EBC40905EB841C0CEB020303F502
:1015B0008057002097F8008818EA010F00D04020DB
:1015C0003F780F4201D040F0080012F80C700F4233
:1015D00001D040F0040003F500531F780F4201D002
:1015E00040F010000AEB0507D75D0F4201D040F034
:1015F000200093F800380B4201D040F0800005EB4A
:1016000089176D1C2BF81700402DCCDB761C082E9B
:10161000C4DB641C202CBDDBBDE8F08F0C00002077
:101620009C300020FEF760FFFFF7CEFDFFF714FDB2
:10163000FFF760FDFFF79AFD0C210548FFF7DEFC80
:1016400003484030FFF7FCFAFFF79CFFFEE700007D
:101650001C3000202DE9F04F204800250668356435
:101660001F4BDFF88090DFF880A0D3E90012DFF88D
:101670007CB019F802701E4C28464FF0010E01EBA9
:10168000C70700BF00EB87183AF81880CBF8148022
:10169000C4F800E04FF4803CC4F800C0401C40286F
:1016A000F0DB1048143830F81100306419F80200EB
:1016B00000F020F84FF0805020600014206018687F
:1016C000401C1860082806D11D605868401C5860EE
:1016D000202800D15D60BDE8F08F00001C300020A4
:1016E00000000020341800089C3000200000024058
:1016F000180402402B49202853D2DFE800F01012D2
:101700001416181A1C1E20222426282A2C2E3032A9
:101710003436383A3C3E41434547494B4D4F2248C9
:101720003EE022483CE022483AE0224838E02248A5
:1017300036E0224834E0224832E0224830E02248B5
:101740002EE022482CE022482AE0224828E02248C5
:1017500026E0224824E0224822E0224820E02248D5
:101760001EE022481CE022481AE0224818E02248E5
:1017700016E0224814E0224812E04FF439300FE01E
:1017800020480DE020480BE0204809E0204807E011
:10179000204805E0204803E0204801E04EF20240E6
:1017A0000860704718040240000002E4002002C4F0
:1017B000000402E0002402C0004002A40060028491
:1017C000004402A000640280020000E4022000C481
:1017D000020400E0022400C0024000A40260008471
:1017E000024400A0026400800080026400A0024461
:1017F0000084026000A4024000C0022400E0020451
:1018000000C402200280006402A000440284006040
:1018100002A4004002C0002402E0000402C4002030
:1018200002000400080010002000400080000001B9
:10183000000204040008040C1410181C020A060E0E
:1018400016121A1E0109050D1511191D030B070F9C
:1018500017131B1F0000000000000000010203041A
:101860000607080984180008000000201C3000004A
:10187000AC020008604100081C3000208484000095
:1018800074150008C100FF005655514D45270A0147
:101890000101020310242F4339080B4B170F0A02D2
:1018A0000B3968757C735F627592ADC6C4A0693BE5
:1018B0002117151F1B180D0D0F1212141C2B39396F
:1018C00036312F2E271E19195C5753514422070316
:1018D0000202030A2D423C659840156E6E7E4D143F
:1018E00044A0B1B6B894837E8994ADB8AB967C63BE
:1018F0004F463F42392A191211100F101926342E63
:101900002827283032303030635F5D574421080388
:101910000303020F5675609AC49652ADABBF776E43
:10192000D0DAD5D5D0ADA09C9098A4ABA496817CFC
:1019300075736B655745342C241E1815192B3A30D6
:10194000231C1A20282D3037686366694F210A044A
:101950000304061683B49CC4B68398AD90B4A0C1AA
:10196000D7D2D5DA7E899EAB969AA4B4B4988783F1
:101970007A7E7F7A73695C4E443B312A313F403A2C
:1019800023161114181C1861202F6E69707C6224B4
:101990000C0404071959ADC6ADB1A983B4B1AFDACF
:1019A000B49EE1E1E4A22C4DA9AF9EA2B1BDBAADB7
:1019B0009E8C7F817F7777757C787265564A4D5A09
:1019C000594D301F15100F121620838989968E45A8
:1019D0000F060D2E72C6C4D0A996B89CD5D5CDD50C
:1019E000BA4DB4B6A2B4BFAF032808A9AFB6ADAB29
:1019F000988A4018727572787F7E7C7A706B7069F5
:101A00005C4A3A291C161010169AA7A7AFB69E3F3B
:101A10000E157AA7A2D2C1A4B8D7B4CBCBD2D7C166
:101A200065D2B1BDECE9E9E4DFD5AFB1B6B6AB9AAA
:101A3000877F7E7E7A5C517A7E7A787A7C7C776D3D
:101A400069655A4B3A2F241D208EA4B4B6BAC8AF8C
:101A50003C245F8E90C8BA94C4D5CDCDD0D2DC7270
:101A60004FDFE7E9E1E4C52808E1C6BABDC1B6A287
:101A700040182F7C721B707A7C78705D7770454BB4
:101A80007C7A756252443A36778AA2B8B8896B4537
:101A9000334A83C4C1B8A9B1DCD0BAD7D2E1563138
:101AA000923F284EDCE1DCE1ECE4C6C8D5C1A48756
:101AB0007C7C7A7A78243B7A785C68323D5A231EA3
:101AC000687A81837C70635A6E736D69878E7C5CE3
:101AD000483F36B4D0D0D2C1DAD5A7D5D0D53A292F
:101AE00036A7EFE4DADFE4A95663A2C1D7C6A4871C
:101AF00078011852423073623D4F52231B1F2662F9
:101B0000787F83817F7E7A6E7055455A90AD653DB2
:101B10002A26ABD0CDD0D5D5D57C9EDCCB271A23B9
:101B200031A7EFDFE4E4BF26044E94CBC8A483784A
:101B30007372777A4A3E6843202A2A4E1C1D3383EB
:101B40006E8183817EC610A38A98B6C1C8BF6948DA
:101B5000405CBFD5D2D2D2D5CB5789F9781D171F9B
:101B60002740ADE1DFDFE9D21F0457A9C1A7857285
:101B700066636E6E523E4A4F142019150E14365F7E
:101B8000568A8783817C7C89B1C8C8C8C47E3C39A9
:101B900055ADD5DAD2D2CDBD603CB49A1B151B1B16
:101BA000222C2C8CE4DFD7E7AF060683B4A98A6D1C
:101BB0005A433263464A2015110A030A1B28335C34
:101BC0007F899083837F7CA2CDC6C8CBA952233F57
:101BD000ADD7D2DCD7CDD0BA3A3C53250C10161C69
:101BE0001D271D72EFDCD577240128AF39ABA08308
:101BF000695977114A3728140D03040A1010211A65
:101C00002C83A0B69C89837CBACDCDC69E893F1C0F
:101C1000288ED7DCE1E1D7D7A02F5521141111125E
:101C20001C2B2D2FB6DCD7E9B12A01022390896D38
:101C30006055460D1021190C120C1B2A15040712B1
:101C40000B4992B8C4B89487A7A45F3D6D7C3B1D37
:101C5000249CE4DFDFECB6562E272B191616151937
:101C60001D2D2E49D7D0D0D5E7CD4310252D2423C7
:101C7000555F3D0E040101020B071604070406120E
:101C800015228996BDCBCBA796591B39B47F3F232C
:101C9000289EDADADFE9D033131A3D10CF292B233F
:101CA0002D2A7CE4CBDADCDFEFA713131B0B212FEB
:101CB00051300F06070E070904051106110F190B05
:101CC0001466B4BDBDCDC87F533CBAD5B865465F78
:101CD000C6D2E1DCDFE9902311181B1920575C3EC6
:101CE0003D3A94E4D5DCE1DC5D1E12150E041D13B3
:101CF000121309080B0C140D181A1C0C111C1606D3
:101D0000195C73B8B8C6CD7873ADD5C17A8AC4CD25
:101D1000DAD7DAD7E1E1E4702E1C1B1D20335152D3
:101D20006BC1C8DFE7E7CD2B141216036508072740
:101D30008915070B080A06090F06031208050C048B
:101D40000C708E8EADB1C85F759A8A340C77E4D56D
:101D5000D2D2DAD2E1E7E4E4B8552F1B213C4B3D67
:101D6000AFE1D7D562451B13151716180A0E92144A
:101D7000D2290303080C38181E04020703020307C4
:101D80000620838CABADAFBD2718254F44249CE7BC
:101D9000D5D5D7DCD7DF41181FE1CDA4635694C158
:101DA000A4E1A94419191B1416193B601B230466EE
:101DB0007E050203060304811B010301183502049A
:101DC00025B87AABA9A4BA07030E4D7F6DC6D5D04E
:101DD000D7DCE1D7D2E1E1E7CBDADAC8C1D2DFBDA7
:101DE000431710151918223E481F1D49092A903122
:101DF0000302761C070A0747182706080607075C30
:101E00009EAB92AFB4B401010B559894C8C4BAD03C
:101E1000D5E4C1C6DFDFDAD7CBD2BDBFBDBD270E4B
:101E20007B10242378DAB88E2B123320AD6528017D
:101E3000030906040606010306090A0C0C07288399
:101E40008AADA79EB8C8382E010E5C9E92B4B6B675
:101E5000B4BFCBC4D7D7D2CDDAD7BA929C92A28ADC
:101E600031101D5D96CDC6B6908A423CB8754521AD
:101E70000402010606FB200E0B0D0C0B0E4E779094
:101E8000A4B1AB94CD10690D609E7370B6B1A9B1C9
:101E9000BDBAC8D0CBC1D2CDA2816B8AA0AFD2AD22
:101EA000B6C6BFBDCB9883758ABABA57492A07010F
:101EB00007040403080405080B0A0D093F626D8E30
:101EC000A2A4B6A9B6010109447F5D56989EB1B49B
:101ED000AFA2BFBFBDB1B696968E5D96ABA9ABB6AD
:101EE000BFC8B8B6BD9294A9BFB6C45F5F5F0518FE
:101EF0003906041007090B080A0B0D0D15968363AC
:101F000087A4A7A2BDA90304051C3234272A275998
:101F10009A9096BFB8AD81AD83907E4F3FC1B8B463
:101F2000BD5640C1BABAB4AFC44618085C8A660A46
:101F3000010209BD18320907070B110FB68C948AEC
:101F40007EA2A79EB494070802040D0A08050206A3
:101F50002545658C6B551F7C6D85812B115DBFB64A
:101F6000BF7CABCDB6BABA86201FB8B181A05F0ADC
:101F70000303040908090B09060F0D4BFF988E9EF9
:101F80009298ABA489520301190331100D0319442F
:101F9000782C2237688C858516502A0FDAB8BDC494
:101FA000CDCBB4B1BABDBFB4BA7057A76D0B0104A5
:101FB000060409070B080D0B428CD2B1C894A096F9
:101FC000A0BF9C25120110100101030A3162A93241
:101FD0001B2D38A7B1A74A181707A2BDB8B1A9C1D0
:101FE000B6A2ABB8B8A9B681B69070160D0107EDD0
:101FF0004011011D0D317E875D28313B9CA2773D4C
:10200000A011403D0413100B0B0D29693485420DBE
:10201000131633ABAFC1BF6685BABAAFA7AB24AF57
:10202000A7AFB1A9B4B1B694752F6E0305101924EA
:102030004D87384F6375690A0704239C7C190B1878
:1020400010090F3C190D0E0607184034101D070B20
:10205000111F48A9ADAFBFB6BDB8B6B4BA4FA49E64
:10206000A9B692A0ABA2A0604E8AADBDAF9C9294DF
:10207000605353556E770B06040332521732B6186D
:10208000351148241409090102040303070E151F22
:10209000337CB1B4B4B6AFBAB4B6B6BA989A98A70E
:1020A000A4A0ADAFA415A0B1908A8E8A92683C59C5
:1020B0005653697A0F2D3702090415620118530D22
:1020C0004937190B080102090505080E141E36725E
:1020D0009EB6B1B4ABB1B4B8BDBAA2988A9A5C52FC
:1020E000B8B4AF7AA485878C909446363A5D5C5F2D
:1020F0005F7A1802030202030306100802010206B7
:1021000010110807040202070706060A186D92A4B8
:10211000A47D2821AFAFB1AFB8BDAF5290853C349C
:10212000AFADABB481839096A08C94A7A79C8E9200
:102130005F7829023F180B03082F07090A090705D2
:1021400004BB1A030928370706092073B8A9A9A4F4
:10215000ABB8B6B8B4A29AA4A93E68733E3BA7BD7B
:10216000B8A47A8994A4A9A7A7A9A090877E776E1E
:10217000B19852180403051D13050A04063D18E31F
:10218000030201130B0708051218165DABA4A09EED
:10219000A4BABDB8B4A47575623E433339756E5F99
:1021A0006D72878E9090A0A7A7A29E87817A7E8A63
:1021B000D0851D08053B030208653B0E1928020265
:1021C0000103061B0F050B06090A6D9A98A7ABA918
:1021D0009A9CA2A9B8B1783A3F333132271F1556DD
:1021E00014578A989CA7AFADB1AD9669D78C7A8CFD
:1021F0003A08020320230F0802041A3E8C87100AB3
:102200000C020110390B070F0A7AC8ADA2A2B6B8AA
:10221000B8B6B49C8A4F4F37332E303634151B3244
:102220005C9C98ABBAC4C1BAB4B1B1B1A4AB92874B
:102230001804010B8A37070D01011685B1AFB6B638
:102240008A140C141A0309260F2F62ADBDADA9B470
:10225000BFC8CBBF8C4E363D2D28211B1B2C271E03
:10226000328A26100DB4B8B8B4AFABA79E96969636
:10227000041040013DAB4906110107B6ABA9A4A467
:10228000A7B4A47F27101B090E1E0B2E0C59B8C62D
:10229000BFBDB6B6694A37362E2C1C272C2427180A
:1022A0001B1985ABB6BFBFBFBDB8B4ADA7A4A7A768
:1022B000780118360262A45A421010198C90A2A913
:1022C000A7A09C9C944B1E180A04201A3785B8B806
:1022D000B1B8C1BAAFA76D2E37322A3024271F23D9
:1022E00020281857B6C4CBC8C4431008AFAFC8A045
:1022F000CB6801181F03692730393D75816583A4B8
:10230000AFA0A4A29E9475241B05033FA0C6BAB635
:10231000B6B1ADAB181EAF783A3723232728201566
:10232000151E161981B1C6C6C4C6C6B883B8E9DC85
:10233000D7B84D801833071173A08C21397EA98935
:1023400043A4ADABA09E9C8A320963BAABABADAFE0
:10235000AFB1C4C8C8C6B1903D32252420191D13A1
:10236000151F221857CBB8C14118B1BFC19A77D0F9
:10237000C4AD3302050C121570949E121D735908DA
:1023800034B1A4A79CA29A94817AB8A2A0A9ABAFB9
:10239000BABFBFB8B6B6A9B65D312C2D1711191545
:1023A0001420181453ADD2CBC4BFC4BDBAC66D1D22
:1023B000C1BA1311223431394B98A40D0A6D3A1069
:1023C000BDA2A99A7F98738C855A2F7FB8A7ABB806
:1023D000B6B1B4B8B1ABBD98272E32331C15121567
:1023E000191119123F9CA9C6CDCDC8BFBDC1D57367
:1023F00048570A27627A68626D98A2030159290436
:10240000985637555F442398877A2C011068BAABE9
:10241000B1ABA7ADBAB6968CA0482ABF201E202328
:102420000B1815238C969CAFADB4C1D2E47C707CA4
:1024300008020A317C837F7875989C203F2A3806F1
:102440005F1A253227562048947E850B52B8A7A9DB
:10245000A4ABABABA294A4B6D53A2323201B130A9A
:102460001B101952B6B8B6A7B6B6B1C4E4C10B1961
:102470000301072E6E77696965988E10CA1D5F0784
:102480006557727F3F8339118E928383C4ADABA9A8
:10249000AFA7A08594B1B8BDCD7A5A3F26191117C0
:1024A00009045DA9B6BABABFB1ADE9D0DAD7FF1C4D
:1024B00002020A2B526652493D77780201015D0DF6
:1024C000688EAB5F44561D339AA4A4A24478855706
:1024D0003652329EB4B6BDC8B4A0B8BF5255694991
:1024E0005A0260B4AFB8C4C8C8BFA2D5E4DCEC6679
:1024F0000206132D3F4523140B597C903A07071E03
:102500006B6E5D1C0B060565ABA4A29A7877779C71
:102510004A4D75BFB4B8BAC8A9A7C4BAC4CBC1BF25
:10252000D24A4DB8A9BFDCE1E1DCD59AADB1622257
:10253000050C282A1C0E0F0F115C7AA7A73D148EDC
:102540007C38280C0302184D2FBD756D756970819C
:1025500094A287C1B1BABAC1B6A9B6C6C1BDC6BF39
:10256000C6B1C690B4AFB1EFD5D7D7DFC698AB59D7
:102570001604193D180A0D08030144759E9C98A085
:10258000A7703A0F040301020233947F5C65707FE9
:102590009E9ABDB17F183DB692B6C1C6C4C4C1C132
:1025A000C8B4B6BAABB6A785F1DCD0D2D7A27C59F5
:1025B00016152C160E0C0502020345709E651D11A2
:1025C0003E537743030203050116661F78706D7A48
:1025D0008AB4AF021821A28EAFB4C4BFC1C4BFBFBA
:1025E000C4B6B4B4B6ABA9702BD2F4DAD2B6602CB0
:1025F000132B180B060432183D03110ADAFC550997
:102600000306101904040405025528013B85667869
:1026100081ADABB4CD9E9898AFB8C1B4C1BDBFBDBC
:10262000BFAFB1B4C4A49E83191D5DB8FFE15A1BAE
:102630002A1907030440280D02020101D0E94212C1
:102640000B040202401406180618280B68667A7EEE
:102650009EA4B4DAC6AD89ADBAB4ADC4AFB8B8B152
:10266000A7AFA9B1A0947A2B22180F1D427E313654
:102670000401ED130201180E01040BBA782715149A
:102680000B0605050592182D0607020A0D7A7F83B1
:102690008C87CBD7BD422DB8AFABB1AD9AB6B1A93F
:1026A0009CABADA99892858E1E160F0C11272E2C6F
:1026B000270801013E18310F161105376D530E130F
:1026C000110E0B0B0B0A090A0C051217207F7F6EE7
:1026D0006992CBA29A2C69A9ABA9B87F9AAFA2A2A2
:1026E0008CA790A4C17F9C40100A111012162124BF
:1026F00026310D184304149698272A08728A450C2F
:10270000080D0E1211110F0B0D070407072889730E
:10271000735777A24F8A4F98A0B4C4708C87A09E3D
:10272000A0B1B6949EC18A90432E231A1314181D8B
:1027300020222830339224F7203E06037F59150EBD
:1027400045693F13070D0E0E080506091D626D63EE
:102750005972466E4825204D6E831C2BB4926672CA
:102760009ABA98C6A4ABFF732F3130231A17191BDE
:102770002023282C2D321219C6183E7F233C949614
:10278000909832030203110D050822556B7C69698C
:10279000574B5539160A132A3C120D8A3CB4B4DF44
:1027A000A4F7FFF7DCAD3B2D30302A1B1A191B1D97
:1027B00024282A2C2F342F094210407081928C89B2
:1027C0008E949C5C040E3A0F090E3F391B239CAB80
:1027D0009E2B72660F040A1B2F1D0906082F684ED8
:1027E0006D87604B45332E2B2B2E281D1B1B1C2069
:1027F00021272C2F3030323B1E03187A7A858E89A0
:102800007F8C877E600510243C161C2118206EA743
:102810009CA9A9904005060B1C2C20070706060C56
:1028200015151F2424292A272324241F1717191AB2
:102830001E2226282D2D2F2E2F3234208589837F8E
:10284000908A878C1C0216632A2B062622429285C8
:102850007F9C98783F131313202B25120408030143
:1028600003080E141516171515191911080F161B44
:102870001D21272B2D8100FF002F2E2D2B514F4B7B
:102880004A432B100605050507256990782B060796
:10289000300E070401031A3B4B57574244536E83D3
:1028A00094876340241614121611100B0D11141383
:1028B00011182332333432323631271F1E524E4E16
:1028C0004D3D2009040303040A3A7E897A5D280DF0
:1028D00044494E2B0A256E7E81836355515969897F
:1028E000907F6551453F3E39362D23161210100D4D
:1028F0000B101D2C292625283236343432554F4EE4
:102900004E381907030203040F529085837F623209
:102910006865754F4BA4C1B1948E6E6B69656D7F10
:102920008C856B5A5F63685F564B3C2F28201B13C6
:102930000D101D2A281D1819232B2E3034555251E5
:102940004E32130602020305186E87838C704B5CAF
:102950005748735D7FB69A7C6B485A6D736B6E7A7D
:10296000908E776B686972726E665A55493F372B45
:1029700021232D2F2A1A12180E10141A1D1F285C3D
:102980005A5A59340E0440185B0F4D8E7C727E5C8F
:10299000336B66609C593359554B32112F707873E5
:1029A0007A819289817E7772706E6969696E6D66CF
:1029B0005C4B3E3E4542392317100D0D0F12186037
:1029C0005D5F5D4619040205143A8596895F52578A
:1029D0003AA2AD92855F071E272429373F566B6EBA
:1029E000757A833F184D7370706E6869686D707288
:1029F000706D635D5A5244382E2018120C0B0E571E
:102A0000575C5D5C4818050A3E565F987F555177C4
:102A100057929A8166520E3D2E1F323C4F5A595D95
:102A200066788589857C726E6E6E6B534D6D6E6DAA
:102A30006B6B0428325F5552493B30251D171559E1
:102A4000565C5C60655620153B55537C653B4A736C
:102A5000877E8E7C5C140651573A30444F51575351
:102A600052728E9A92814018506D6622686D6B6822
:102A700065576B694243686560524539302B605F2A
:102A8000575A5C423226223353757563493A63893B
:102A90004B738A550601265C4A3A385955555D5C98
:102AA000739EAFA287756E6D6D6D6B293D6D68511C
:102AB0005F37445926235C6811287F62564D605A5F
:102AC0003E303D40393434322372757F895D5C8CF1
:102AD000384B87430201032D4D4B3B344F3C2A4A70
:102AE00081A7B8A987726966666B6B3E3068573BF1
:102AF0004B59332320235366696E7270706D625593
:102B00002E1820344A3B2F221C756E85947C6294CB
:102B10001B20752A0101010324524E3A4948161020
:102B20006394B6A78A6E686563666945425D3F2314
:102B3000272F621F1E28565A69D318186D625748EE
:102B40004F52565743302539655F78927873720734
:102B500011650D40182201042C5353515D591A1868
:102B60006D9EAD9072635C59626345404853181D79
:102B700019170D17222838C1281969696B625C5A28
:102B800057565649301D2460685C65968C63140363
:102B9000201B3F18230202022566484F5C4D0E1D84
:102BA000879E9273635220376830311C190E0601DC
:102BB000030C121516385FD11B6866581013565750
:102BC000523A191F5F73655C5394A9650B0A09019A
:102BD000393F10180114654F452D1D0A09519A8A75
:102BE00072635D3216633A26080501382203050632
:102BF000080406153756626866685C575A574243A0
:102C00002A13153F6362533B5D9449040E027F18FB
:102C10001B0303032A68625A3D150810287C73665B
:102C20005A6046131923140306040B82181C02036E
:102C300001080D32494E5F637068371B273C281529
:102C400014425D5A44331B0C041B59403013086571
:102C50007F6E655A45221C1D231C234F5D451506BA
:102C6000140302081C0201022738160F0C424242CC
:102C700057905C171C4A3C2A1A1852685745371E51
:102C80003C181A010103020204031187945763657B
:102C90005A4410121D2A2831523A0F025C199D48DD
:102CA0001E040105050601010D2D36494346925AC1
:102CB00024525552392731786B5253432A0B7D18D1
:102CC000170D0B050405215C775348523B1B11116E
:102CD0000C102A1818100354100A060309080902D8
:102CE000040803190518163048404981604E5C52AB
:102CF000303A4D666D5C575C5133200861197D1880
:102D000016090910464F60555F4A1F2311150833F5
:102D10000408172303020219BA12011A0423211806
:102D20001A060B14443E4453453F320D012B66688E
:102D30006262685F55382D2C1F06DF100F030505F2
:102D400051B470602E2C20201413201616600E51E2
:102D5000061917150103010132011201183102078A
:102D60000A223F33421C0F111008033A6960685F62
:102D70005F5A4E3B343240491B0B081321208A72A4
:102D80002614171A110F14364D32310E3416342909
:102D9000DA19406118310218082034253305040A75
:102DA0000E0F0F44554F5D5D564D40433E392A5C32
:102DB00057282723273327130B0E0E0C10285225D4
:102DC0000D3811211E02733940297C294418310421
:102DD000111B15322D2A01040C1411174F4A434DB3
:102DE0004F53434A4F453D322E3C21261B190E15A9
:102DF0001718191E3E7753310E051E153C0A037233
:102E00002981498719BF1008060B1D1F273839284B
:102E10002904141F11174043403E454D4D654F4452
:102E20003A3F312512130D161E191116324B6969DE
:102E30003E2325121953140202F539BD39C5100A73
:102E40000103050D192325223B1828052638150CEA
:102E500019453E3943464D5F4D40323D311E0D0907
:102E60001B393F5A55605D535762271E233751590E
:102E70000603B9293F598011100A0504040D1920D1
:102E80002B2A2C28290B465215080D293044483F7F
:102E900032534A3C2C301B1A1D103F59595A5F625D
:102EA0006352534F27344D59525C050608393C0490
:102EB0000102C5303501011813040B1A22213329F0
:102EC000011A726D1B0D10151531463229556043DC
:102ED000293318222E130E595F5D602D235F4F5347
:102EE0004A4A6255535503140919C4493E2835010D
:102EF0003E251F140A222C262F1F0332A0852F11D6
:102F0000131510142E453F4F422006231527370B6B
:102F100004215657593C6E624B4D4F4F5D555642FA
:102F20000E21063B2A028019091022086D3A282535
:102F30001B1E33322820043FB68737100D0E0B09B5
:102F400011364F4E160B0F2030313F073812065DF9
:102F5000525355565D4643484B5D52591D0E25C090
:102F60003943102501010515494570272D263142A9
:102F7000341E054EAD682C12070907080B3260732A
:102F8000180D202C55554B1B18140444514E453A2E
:102F90004844393D43524B5914291B0A01791902FF
:102FA00011203B0501020A16110A0E102C2E2514C1
:102FB000330B06559040272E1E0B0C0B105D8C8A90
:102FC000200C1A2730534D5552274451494037326F
:102FD0000B3B373B3F4B452B2C1F0D040D18CF03EC
:102FE0000507152701020611110707040D30270CEC
:102FF000030A064B6E1D2D51230D0C0607A0C62A91
:103000001307142027394A4A4E4F484F49433D3D44
:1030100013342B3136232F3025290A0A1C424F4006
:103020003432390F0203030C120607050313140987
:1030300019620639400C2B4E211506070230660531
:103040000709111922345949484948454A42403B29
:10305000362628273029324356390132452E2A2C6C
:103060002D3411010303030A1307060605030403A5
:103070000A3C082D2B081E4F2F1609080304110BBC
:103080000B1011121E3352444A4946423F3D3B3E0B
:10309000392B251F2528344962562B32232728290E
:1030A0002A05010104040608130806050449180B43
:1030B000040B0A271B090C1610074F3830030D0E9E
:1030C0000D0E1015343F403F454D46443D332F32E1
:1030D000372E0E1E203D2F425C554A2020272C33D0
:1030E00028334644382A300A120B0405411C1307C2
:1030F0000A011A064A183E0304090E0E0E0D122C80
:10310000434A453E393B4A4942382B2326270F176D
:1031100020201C3D56523416202C343F4443443F5B
:1031200034311E13102B3C250F060403070C060632
:10313000040703024A18520302170F0F100B181B43
:1031400019383F3C342F3242484038291A1B1B1093
:10315000130F12271D100F11191F2428343D3D3C59
:103160003D242718191D603A0D05030D0104072899
:1031700017050A13020202030628140B140A080694
:10318000455A3B3C3B372D27AF105E36220E120DC1
:103190000C0D0A060411031017222C343E4345453A
:1031A000340E722D18200E020101090D09080202C9
:1031B0000B15363C0606387E621832111012064393
:1031C000654E3E384244433D30231C10150C0D0D16
:1031D0000D0E10030509102123313F484A4D4B4B7A
:1031E0004D4E3E3E291D04021827032E13070F1BC8
:1031F000090B395546494578DA921620060D310DEE
:103200000E324F4B40393C4444402E22160D100ADA
:103210007D201604090604081C2D343E44484B4EFC
:103220004A46433D3B362C011824153C1F060FF13E
:10323000A94B48433F3B3C3A384A2318250C1A18FF
:103240000A3B122B484E453A322A19100DA118118B
:10325000040607050702030320333C454D4E4D4E3F
:103260002F2545403D27183F012440221807BA70FA
:10327000403242433E362B252319171B0F0B2024C7
:10328000274251453B3C3D332A331F0B0D0C090AA5
:1032900005050305040602123A484F5253524E5197
:1032A000464E42104F1F40103A290B0B110A3E2385
:1032B00018324F493D3C3D382E220A150909324B40
:1032C000555149443F3A343333311D0F0C0606063D
:1032D000050302020402031D3C4A515659594E0F80
:1032E0004923340B4915203901021B2B271239724F
:1032F000553D1E48575A4B443F3412073C4F4948EE
:1033000045433F43484B463D30200C0A0606040324
:103310000302030505020D49424A5657595A5A24D9
:10332000182E2B3E0E0102040302162D3C1243629E
:10333000330C255952554348443C3132564A46468F
:1033400043444B4E483D38312832130A09090329BA
:103350001010030603010932525553555657576250
:103360001A182D52430507111A12100E2E441D571C
:10337000773462924B524227422B3F321A0D384E1D
:103380004346514B45423C33323D1E04080B0B670C
:103390001A03BF102901041D2D4B5C5D6059535C5D
:1033A00060201321031234403629253045307872CD
:1033B000388E6B7020122E1A03422E250A10260515
:1033C0002B554B49403A3B42391B19300F07040338
:1033D00006070801030202161D1D31343F4D5A65D0
:1033E00020201D02103D04183F4545402F373E5216
:1033F000AB833690774B0D0917150112392529013A
:10340000255A4A45434542392917233D4F050505AD
:1034100004040201050201092F323023323D3646F1
:103420006D4D13030110160316383E3F3F343C2FF9
:1034300078CBA23BA76906030A0B2705181537337B
:103440002B3165524D453D322A181E3742454D11EC
:103450000D0A3F2202200F13263337393829275906
:103460004E626D850A101004132C38343426321F36
:10347000A2D0AD5AAB5F1020010712320F123449AF
:10348000484411261914121708324A46494E37206B
:103490002F390C0B11070E100F192F2E383E4043F9
:1034A000342144667C8A3118310207162329191009
:1034B0000A261D4B8A905D30490A15180E090A2B01
:1034C0003E46453E2323192318323B4F494B4E536A
:1034D00027243E3F383D3A383C5B10C42C394B57CB
:1034E0005656451E27251F1002051316150E1419D2
:1034F0001934204038573D363C292711060503175B
:103500003C252B1D191D2728283855494F4F523F60
:10351000263346433E3E3E423240293634316368CC
:103520006663623D2025150C031326100B16110847
:1035300004241B3C3F3B3B4539331307050305057A
:1035400016573B0D141A23302B524E525551421D23
:10355000364A464645424346343D3E393B31156D79
:103560007777685928130C0F15231114160D0A09C3
:103570000B2220371E0D091E2D3E1D0504060906CF
:10358000144310171C191F27454E4F514E341C343D
:10359000404D464948454548393C3E3D3736132065
:1035A00040487E7F633B1210112211110D0B090858
:1035B000090B120A6569220804060D130606070A9C
:1035C000063820020F251720214D534B592F29284B
:1035D00046484D454E494A4A493C3F4248343219D3
:1035E00018190C33774F0E07230D09070A0909072D
:1035F000070603034848200D09053E1707070A0A76
:103600001209101D0318162423393D557542362F13
:10361000434B4944553F4D4A453D433D44322D14AB
:1036200022011818010614040D02030306060604FD
:1036300002020810342714100F0B090140240A0855
:1036400007080B030202232A2322208573441F1933
:103650004949454D40324D494337423C42302E1591
:1036600005183D01030303040302040201010C1DBC
:1036700023090B201D0B0F0F0E0D0E0E0D0D0E0F3F
:103680000A131210272A1B1B24694336253246468B
:1036900046571B3A4B444422462E3E452113033ED7
:1036A0001901197E18360503010309494D272E0D0E
:1036B000232C170B090C0E121213120F110A080DEE
:1036C0000B122D23221727451D3934403F49570D32
:1036D0002E2C403F441324373A550E7239011940BD
:1036E000283604050838120A0504070B271C0A09A6
:1036F0002032240F090F110F0B08090C181D1F177A
:103700001A1F323723191B1F303D010255320D1885
:103710001A0902251A1E313B1A02451F020304042E
:10372000050583290F1809200A183E44343C151456
:1037300010150C0C080A172C1D2A232923283222C5
:10374000130C1A343F05380C2F04193B1B0532307B
:103750001B11077A193329C01F050506060602CF7B
:1037600028201B28363D3234373F250306120B0A2A
:103770000E301711163E44321542310B08162C3C00
:1037800024F31C0501053C59BA1A020229C0182B62
:1037900006060706070501011D2B34322736333292
:1037A0002402040B1A1016180F16292E2D383B333D
:1037B000200509182E382908050242196849404990
:1037C0007E19AC1D0607070843302609081B25266D
:1037D000283739383C0901073216180719141A24FA
:1037E000181B3332311B0A1420313B3218060E05E8
:1037F00059401901111A013E197F19401A07011881
:10380000160873706E70706B55494443424475C816
:10381000DF660602040368280B0102091620272F21
:103820002B2F2E02182C291E1713110E0D09090714
:10383000080B0D0C090A0F191E252828302E261DED
:103840001D736E6E6E7262493D38373B3D69BFB87D
:103850003D3C194019AB183804050507182A2E2AD3
:103860002E39403D312D32383932282018100C0ABB
:103870000A0705070C161818191C272E2F2D2A7059
:103880006B6B686B57422F2D31373C456E73167B3F
:103890001A030419051902183416323C373B4A5DE5
:1038A0005A463A48555F574B4234282219130B07A2
:1038B000070C1516100D0D15202728296D69655761
:1038C000524D3327262930432F152103BA190349B6
:1038D0003F18330D293B48454B5D726555525A657B
:1038E0006E6E685C534D42362C2116151917170D54
:1038F00008060A1116161C625A534636342C232029
:103900001D183C2F0201193D293C1A0401181D0BFA
:103910002138444A565F6B686566696D6D6B625D00
:103920005C66635D534538322C251F8728130607D4
:10393000090B0D342A29231412191F1409080B042A
:10394000401B0203C01202290A380A05050D202C6B
:1039500045526560403821695A56565F7068666303
:103960005C4F433727241D140E0A0807070A030378
:10397000050304070A0903381B0303BB19061119C1
:10398000C9198218250303071D3F5F6D726B6B6DAC
:1039900066665D321F5C655F5A5F6363532D273631
:1039A000362C231D16120D1803F11931190729FAA7
:1039B0002A0445140204011A053C29C4100E040609
:1039C00029657A7E776D6B6668604D1816465D5A7C
:1039D000564931564B0A064A4D4E453B3129204D3A
:1039E00020096B290179BD19FE211B0205542940CC
:1039F000282603207294947A6D6665635F56020DE3
:103A000056521D31080E2901011D45555F665D4F57
:103A10003F6B57331207034039F329412A04401101
:103A20003A03823017050F265785A2947A69625CA3
:103A30005C5C590C02443305081201180F123E4F0A
:103A40005C6969655F725C32100604411932494055
:103A50001A0141412A02411013050D429296A79482
:103A60007A63594F5155571004281A240102072828
:103A70000D01132B4B5C6063635F5A320BA539C198
:103A8000494111630106301703050304030511556D
:103A90009498967762513A3A45441303071B196C80
:103AA000180C0101094E595C605F5F3C07733B03D2
:103AB000023F29FD2A02C8711A025A180E040B2C63
:103AC00066908973653A16030C2CE971480B010165
:103AD0000625424E575D5C183F111A0106290369FD
:103AE0003C3925100F040304091F394D7C7A6B5AA9
:103AF0003A0B057A0B3F291D180903052C4A51532F
:103B00000902A5194011193E19C819FB8924195A2F
:103B1000180C04040D3A45113E4A4232095A1A0162
:103B2000682901599F4808030B2B462D1B0B401990
:103B30002B9B040460312B04029D1B0F12536C0459
:103B40002A199A19445908280A040303189C5A137D
:103B5000050452292BB9BE19BF29141B04040ACD30
:103B60003F0407175C19312A06321CC8570A471947
:103B700094292A19BE6964292119CF1913190C9C9B
:103B80000117137D7949295E1B942E051A036939A3
:103B90006C99811951193F195A212B0F074E0112A7
:103BA00029741E5214030501FD4940298B795D2DAE
:103BB000020401023F150314190702130519332FDC
:103BC000041E04040A048A593F194A29B13C02011F
:103BD00003B9317E04060C0F1757997E1940580A15
:103BE00002030502060C0B03053F19031A02F31921
:103BF00001693114020E0312030A1209BE1A01C030
:103C000019A13C06100B79294529091A024029B748
:103C100059E22A036A19050911BF1A0133215B070A
:103C2000144029BC2902293E2A01711A01A1190157
:103C30000C10010104BE391F240202041C0A1B0CD3
:103C4000C829033B070E48193B193A1911190539C0
:103C50004129840913401922112E020B190B04BCAF
:103C60001D03040F267D1A03D83A0137293F29097D
:103C7000191A0911FD398019AC1D050C0D063E19E4
:103C80000C2D051D42144029B22938190629412955
:103C90000511D9C11A041E11295B1D010107092C48
:103CA000294F6F020614371A044029523A073C295B
:103CB0000B1A01D4C11A0612292519057A05DD1837
:103CC00008030B2C0F0B1D0D40199C5A043B3901A6
:103CD000DA01401C0105048229DA19401A02C9419F
:103CE000180A021B4B781D15372A05831139BB3B77
:103CF00003044619101912D9FE49E31204140106EF
:103D00000234061004180A0F7A7E8C2510283932E6
:103D10003519C7393919E9390939E1493B296C396C
:103D20000E194129481307043B112B15680A4D3A17
:103D3000080A0C23374932F7199F294019A8193668
:103D400019711959299C292C5986190F1A08403ABA
:103D500024102305088F092332435108FA29E43936
:103D60004F11290C294A49868115050106037B0953
:103D70001B108F0420293B44088119BA49431902BA
:103D8000290169C6811C010104C46917312C0F196E
:103D900009B419AB59C22C0202053C3903190E397A
:103DA000939940A94D412B06133F494129711B01AD
:103DB0000103290F293B59933912D9C9814D0304B5
:103DC0000E166C292B293D29A029071906494339CC
:103DD000555B04033E5949794C2C020A0627297C7D
:103DE0004B03043F391C2940493F111A040B9932F7
:103DF000390E1403121513070112025A0527297EE2
:103E00003901193A492559D6498339AC291719720C
:103E100029122C072C57104D1603010C233B0404C8
:103E200041597E1929593B499C39BE29BB4B530B3B
:103E3000D72C02020D281D020D080A19196839F441
:103E400069A329D8994049801B0203216A233F199D
:103E50002F418C0A09012629BB6941195549BE1D0C
:103E6000020108161B39BF19052A01DA193F194149
:103E7000418A066849818980393F4F021007197EBF
:103E80001D2C11293519E74B0201411955398D298E
:103E900001296D2965915B01051A1D06627A0740AB
:103EA000299F297A140703014A0C3F29CB7941291C
:103EB000C119BE798219C059181A0174180801066F
:103EC0001119100A01951307031B0D1FC439C512E0
:103ED00001793E1C0302043C99C269C11941192AA7
:103EE0001F12323E31200A141308021008170B0A61
:103EF000010732092A04C21928492619681981299B
:103F00007A4906599A1A0434211F03173E433E2F5B
:103F1000B814060D0318081C2F2504011802A33B32
:103F200002030549A739299149551A0284111966D6
:103F3000100D0315373630240A02020A0E042F2909
:103F40003938462E0B1629C769E5296C79BF194DFA
:103F5000293E1B0206401A056A2815041225291855
:103F60000C0302010B0C01012C39444D1F0801D731
:103F70001A02771A01011129ED2A0434193C190299
:103F8000393F29831B040417111E020612150F6402
:103F900025020103072D04271A0B692A04411B027D
:103FA0000248196F392E29071949298E19CE29017E
:103FB000191D280C070701040D0903020507090F45
:103FC000195D290529A539B2394449C52A02EF29C5
:103FD000712A04113A054D191D18090601070C0232
:103FE0000105033A1958199B69E614021004194196
:103FF00059AC3B03017C4982194D2B010685192DD3
:104000001F040504020405E8192A293C39855119C1
:104010009B29BF693F593A59011201193819071DE7
:1040200002030502EB1A01011A024C2A02BA4940A6
:1040300019174940192779C54901193A19291C014D
:104040000406F31A063D294041299169BF11290947
:1040500019553939B97B29BF59A419616A032C193B
:104060000619D72941298D5915197939424B080666
:1040700038694019C04933492B397D2A062F2972E6
:104080002915291819A6399D19301B1905064B0445
:10409000013C2911693639F839693B03043F199409
:1040A0004937391C29AA29031A0F35292019402913
:1040B00045920429405C020407CE2935295B5996B4
:1040C0002A058B194F12011C030507243B04031911
:1040D0001916194149BB2906296F512A024329455E
:1040E00061280902080207040201049515184D56BB
:1040F00001120419BA112A054759FC593F1964598C
:1041000081390C2958312F090108110907C1113EC5
:10411000021F667F2723193779BAA9402942393F00
:104120005982192919112A03F329C01E256D8A51B4
:1041300001A1A9F9994129281A0405793F19CB2928
:10414000B719EB19161201B00A07276287753001FB
:10415000050349C4299F5A0301291282101324F42C
:040000050800018965
:00000001FF
